{
	".deps/contracts/Games/LimitedTickets.sol": {
		"LimitedTickets": {
			"abi": [
				{
					"inputs": [
						{
							"internalType": "address",
							"name": "",
							"type": "address"
						}
					],
					"name": "Count",
					"outputs": [
						{
							"internalType": "uint256",
							"name": "",
							"type": "uint256"
						}
					],
					"stateMutability": "view",
					"type": "function"
				},
				{
					"inputs": [
						{
							"internalType": "address",
							"name": "receiver",
							"type": "address"
						},
						{
							"internalType": "uint256",
							"name": "ticketAmount",
							"type": "uint256"
						}
					],
					"name": "claimTickets",
					"outputs": [],
					"stateMutability": "nonpayable",
					"type": "function"
				},
				{
					"inputs": [],
					"name": "maxTicketsPerAddress",
					"outputs": [
						{
							"internalType": "uint8",
							"name": "",
							"type": "uint8"
						}
					],
					"stateMutability": "view",
					"type": "function"
				}
			],
			"devdoc": {
				"kind": "dev",
				"methods": {},
				"version": 1
			},
			"evm": {
				"assembly": "    /* \".deps/contracts/Games/LimitedTickets.sol\":63:515  contract LimitedTickets {... */\n  mstore(0x40, 0x80)\n    /* \".deps/contracts/Games/LimitedTickets.sol\":143:180  uint8 public maxTicketsPerAddress = 3 */\n  0x01\n  dup1\n  sload\n  not(0xff)\n  and\n    /* \".deps/contracts/Games/LimitedTickets.sol\":179:180  3 */\n  0x03\n    /* \".deps/contracts/Games/LimitedTickets.sol\":143:180  uint8 public maxTicketsPerAddress = 3 */\n  or\n  swap1\n  sstore\n    /* \".deps/contracts/Games/LimitedTickets.sol\":63:515  contract LimitedTickets {... */\n  callvalue\n  dup1\n  iszero\n  tag_1\n  jumpi\n  revert(0x00, 0x00)\ntag_1:\n  pop\n  dataSize(sub_0)\n  dup1\n  dataOffset(sub_0)\n  0x00\n  codecopy\n  0x00\n  return\nstop\n\nsub_0: assembly {\n        /* \".deps/contracts/Games/LimitedTickets.sol\":63:515  contract LimitedTickets {... */\n      mstore(0x40, 0x80)\n      callvalue\n      dup1\n      iszero\n      tag_1\n      jumpi\n      revert(0x00, 0x00)\n    tag_1:\n      pop\n      jumpi(tag_2, lt(calldatasize, 0x04))\n      shr(0xe0, calldataload(0x00))\n      dup1\n      0x34002707\n      eq\n      tag_3\n      jumpi\n      dup1\n      0x463a94a5\n      eq\n      tag_4\n      jumpi\n      dup1\n      0x969369f8\n      eq\n      tag_5\n      jumpi\n    tag_2:\n      revert(0x00, 0x00)\n        /* \".deps/contracts/Games/LimitedTickets.sol\":189:512  function claimTickets(address receiver, uint256 ticketAmount) public {... */\n    tag_3:\n      tag_6\n      tag_7\n      calldatasize\n      0x04\n      tag_8\n      jump\t// in\n    tag_7:\n      tag_9\n      jump\t// in\n    tag_6:\n      stop\n        /* \".deps/contracts/Games/LimitedTickets.sol\":143:180  uint8 public maxTicketsPerAddress = 3 */\n    tag_4:\n      sload(0x01)\n      tag_10\n      swap1\n      0xff\n      and\n      dup2\n      jump\n    tag_10:\n      mload(0x40)\n        /* \"#utility.yul\":623:627   */\n      0xff\n        /* \"#utility.yul\":611:628   */\n      swap1\n      swap2\n      and\n        /* \"#utility.yul\":593:629   */\n      dup2\n      mstore\n        /* \"#utility.yul\":581:583   */\n      0x20\n        /* \"#utility.yul\":566:584   */\n      add\n        /* \".deps/contracts/Games/LimitedTickets.sol\":143:180  uint8 public maxTicketsPerAddress = 3 */\n    tag_12:\n      mload(0x40)\n      dup1\n      swap2\n      sub\n      swap1\n      return\n        /* \".deps/contracts/Games/LimitedTickets.sol\":96:136  mapping(address => uint256) public Count */\n    tag_5:\n      tag_14\n      tag_15\n      calldatasize\n      0x04\n      tag_16\n      jump\t// in\n    tag_15:\n      0x00\n      0x20\n      dup2\n      swap1\n      mstore\n      swap1\n      dup2\n      mstore\n      0x40\n      swap1\n      keccak256\n      sload\n      dup2\n      jump\n    tag_14:\n      mload(0x40)\n        /* \"#utility.yul\":977:1002   */\n      swap1\n      dup2\n      mstore\n        /* \"#utility.yul\":965:967   */\n      0x20\n        /* \"#utility.yul\":950:968   */\n      add\n        /* \".deps/contracts/Games/LimitedTickets.sol\":96:136  mapping(address => uint256) public Count */\n      tag_12\n        /* \"#utility.yul\":831:1008   */\n      jump\n        /* \".deps/contracts/Games/LimitedTickets.sol\":189:512  function claimTickets(address receiver, uint256 ticketAmount) public {... */\n    tag_9:\n        /* \".deps/contracts/Games/LimitedTickets.sol\":327:347  maxTicketsPerAddress */\n      sload(0x01)\n        /* \".deps/contracts/Games/LimitedTickets.sol\":297:307  msg.sender */\n      caller\n        /* \".deps/contracts/Games/LimitedTickets.sol\":327:347  maxTicketsPerAddress */\n      0x00\n        /* \".deps/contracts/Games/LimitedTickets.sol\":291:308  Count[msg.sender] */\n      swap1\n      dup2\n      mstore\n      0x20\n      dup2\n      swap1\n      mstore\n      0x40\n      swap1\n      keccak256\n      sload\n        /* \".deps/contracts/Games/LimitedTickets.sol\":327:347  maxTicketsPerAddress */\n      0xff\n      swap1\n      swap2\n      and\n      swap1\n        /* \".deps/contracts/Games/LimitedTickets.sol\":291:323  Count[msg.sender] + ticketAmount */\n      tag_21\n      swap1\n        /* \".deps/contracts/Games/LimitedTickets.sol\":311:323  ticketAmount */\n      dup4\n      swap1\n        /* \".deps/contracts/Games/LimitedTickets.sol\":291:323  Count[msg.sender] + ticketAmount */\n      tag_22\n      jump\t// in\n    tag_21:\n        /* \".deps/contracts/Games/LimitedTickets.sol\":291:347  Count[msg.sender] + ticketAmount <= maxTicketsPerAddress */\n      gt\n      iszero\n        /* \".deps/contracts/Games/LimitedTickets.sol\":269:407  require(... */\n      tag_23\n      jumpi\n      mload(0x40)\n      shl(0xe5, 0x461bcd)\n      dup2\n      mstore\n        /* \"#utility.yul\":1477:1479   */\n      0x20\n        /* \".deps/contracts/Games/LimitedTickets.sol\":269:407  require(... */\n      0x04\n      dup3\n      add\n        /* \"#utility.yul\":1459:1480   */\n      dup2\n      swap1\n      mstore\n        /* \"#utility.yul\":1496:1514   */\n      0x24\n      dup3\n      add\n        /* \"#utility.yul\":1489:1519   */\n      mstore\n        /* \"#utility.yul\":1555:1589   */\n      0x6d6178207469636b657473207065722061646472657373206578636565646564\n        /* \"#utility.yul\":1535:1553   */\n      0x44\n      dup3\n      add\n        /* \"#utility.yul\":1528:1590   */\n      mstore\n        /* \"#utility.yul\":1607:1625   */\n      0x64\n      add\n        /* \".deps/contracts/Games/LimitedTickets.sol\":269:407  require(... */\n      mload(0x40)\n      dup1\n      swap2\n      sub\n      swap1\n      revert\n    tag_23:\n        /* \".deps/contracts/Games/LimitedTickets.sol\":423:432  uint256 i */\n      0x00\n        /* \".deps/contracts/Games/LimitedTickets.sol\":418:505  for (uint256 i = 0; i < ticketAmount; i++) {... */\n    tag_26:\n        /* \".deps/contracts/Games/LimitedTickets.sol\":442:454  ticketAmount */\n      dup2\n        /* \".deps/contracts/Games/LimitedTickets.sol\":438:439  i */\n      dup2\n        /* \".deps/contracts/Games/LimitedTickets.sol\":438:454  i < ticketAmount */\n      lt\n        /* \".deps/contracts/Games/LimitedTickets.sol\":418:505  for (uint256 i = 0; i < ticketAmount; i++) {... */\n      iszero\n      tag_27\n      jumpi\n      sub(shl(0xa0, 0x01), 0x01)\n        /* \".deps/contracts/Games/LimitedTickets.sol\":476:491  Count[receiver] */\n      dup4\n      and\n        /* \".deps/contracts/Games/LimitedTickets.sol\":476:481  Count */\n      0x00\n        /* \".deps/contracts/Games/LimitedTickets.sol\":476:491  Count[receiver] */\n      swap1\n      dup2\n      mstore\n      0x20\n      dup2\n      swap1\n      mstore\n      0x40\n      dup2\n      keccak256\n        /* \".deps/contracts/Games/LimitedTickets.sol\":476:493  Count[receiver]++ */\n      dup1\n      sload\n      swap2\n      tag_29\n      dup4\n      tag_30\n      jump\t// in\n    tag_29:\n      swap1\n      swap2\n      sstore\n      pop\n      pop\n        /* \".deps/contracts/Games/LimitedTickets.sol\":456:459  i++ */\n      0x01\n      add\n        /* \".deps/contracts/Games/LimitedTickets.sol\":418:505  for (uint256 i = 0; i < ticketAmount; i++) {... */\n      jump(tag_26)\n    tag_27:\n      pop\n        /* \".deps/contracts/Games/LimitedTickets.sol\":189:512  function claimTickets(address receiver, uint256 ticketAmount) public {... */\n      pop\n      pop\n      jump\t// out\n        /* \"#utility.yul\":14:187   */\n    tag_31:\n        /* \"#utility.yul\":82:102   */\n      dup1\n      calldataload\n      sub(shl(0xa0, 0x01), 0x01)\n        /* \"#utility.yul\":131:162   */\n      dup2\n      and\n        /* \"#utility.yul\":121:163   */\n      dup2\n      eq\n        /* \"#utility.yul\":111:181   */\n      tag_35\n      jumpi\n        /* \"#utility.yul\":177:178   */\n      0x00\n        /* \"#utility.yul\":174:175   */\n      0x00\n        /* \"#utility.yul\":167:179   */\n      revert\n        /* \"#utility.yul\":111:181   */\n    tag_35:\n        /* \"#utility.yul\":14:187   */\n      swap2\n      swap1\n      pop\n      jump\t// out\n        /* \"#utility.yul\":192:446   */\n    tag_8:\n        /* \"#utility.yul\":260:266   */\n      0x00\n        /* \"#utility.yul\":268:274   */\n      0x00\n        /* \"#utility.yul\":321:323   */\n      0x40\n        /* \"#utility.yul\":309:318   */\n      dup4\n        /* \"#utility.yul\":300:307   */\n      dup6\n        /* \"#utility.yul\":296:319   */\n      sub\n        /* \"#utility.yul\":292:324   */\n      slt\n        /* \"#utility.yul\":289:341   */\n      iszero\n      tag_37\n      jumpi\n        /* \"#utility.yul\":337:338   */\n      0x00\n        /* \"#utility.yul\":334:335   */\n      0x00\n        /* \"#utility.yul\":327:339   */\n      revert\n        /* \"#utility.yul\":289:341   */\n    tag_37:\n        /* \"#utility.yul\":360:389   */\n      tag_38\n        /* \"#utility.yul\":379:388   */\n      dup4\n        /* \"#utility.yul\":360:389   */\n      tag_31\n      jump\t// in\n    tag_38:\n        /* \"#utility.yul\":350:389   */\n      swap5\n        /* \"#utility.yul\":436:438   */\n      0x20\n        /* \"#utility.yul\":421:439   */\n      swap4\n      swap1\n      swap4\n      add\n        /* \"#utility.yul\":408:440   */\n      calldataload\n      swap4\n      pop\n      pop\n      pop\n        /* \"#utility.yul\":192:446   */\n      jump\t// out\n        /* \"#utility.yul\":640:826   */\n    tag_16:\n        /* \"#utility.yul\":699:705   */\n      0x00\n        /* \"#utility.yul\":752:754   */\n      0x20\n        /* \"#utility.yul\":740:749   */\n      dup3\n        /* \"#utility.yul\":731:738   */\n      dup5\n        /* \"#utility.yul\":727:750   */\n      sub\n        /* \"#utility.yul\":723:755   */\n      slt\n        /* \"#utility.yul\":720:772   */\n      iszero\n      tag_41\n      jumpi\n        /* \"#utility.yul\":768:769   */\n      0x00\n        /* \"#utility.yul\":765:766   */\n      0x00\n        /* \"#utility.yul\":758:770   */\n      revert\n        /* \"#utility.yul\":720:772   */\n    tag_41:\n        /* \"#utility.yul\":791:820   */\n      tag_42\n        /* \"#utility.yul\":810:819   */\n      dup3\n        /* \"#utility.yul\":791:820   */\n      tag_31\n      jump\t// in\n    tag_42:\n        /* \"#utility.yul\":781:820   */\n      swap4\n        /* \"#utility.yul\":640:826   */\n      swap3\n      pop\n      pop\n      pop\n      jump\t// out\n        /* \"#utility.yul\":1013:1140   */\n    tag_32:\n        /* \"#utility.yul\":1074:1084   */\n      0x4e487b71\n        /* \"#utility.yul\":1069:1072   */\n      0xe0\n        /* \"#utility.yul\":1065:1085   */\n      shl\n        /* \"#utility.yul\":1062:1063   */\n      0x00\n        /* \"#utility.yul\":1055:1086   */\n      mstore\n        /* \"#utility.yul\":1105:1109   */\n      0x11\n        /* \"#utility.yul\":1102:1103   */\n      0x04\n        /* \"#utility.yul\":1095:1110   */\n      mstore\n        /* \"#utility.yul\":1129:1133   */\n      0x24\n        /* \"#utility.yul\":1126:1127   */\n      0x00\n        /* \"#utility.yul\":1119:1134   */\n      revert\n        /* \"#utility.yul\":1145:1270   */\n    tag_22:\n        /* \"#utility.yul\":1210:1219   */\n      dup1\n      dup3\n      add\n        /* \"#utility.yul\":1231:1241   */\n      dup1\n      dup3\n      gt\n        /* \"#utility.yul\":1228:1264   */\n      iszero\n      tag_47\n      jumpi\n        /* \"#utility.yul\":1244:1262   */\n      tag_47\n      tag_32\n      jump\t// in\n    tag_47:\n        /* \"#utility.yul\":1145:1270   */\n      swap3\n      swap2\n      pop\n      pop\n      jump\t// out\n        /* \"#utility.yul\":1636:1771   */\n    tag_30:\n        /* \"#utility.yul\":1675:1678   */\n      0x00\n        /* \"#utility.yul\":1696:1713   */\n      0x01\n      dup3\n      add\n        /* \"#utility.yul\":1693:1736   */\n      tag_51\n      jumpi\n        /* \"#utility.yul\":1716:1734   */\n      tag_51\n      tag_32\n      jump\t// in\n    tag_51:\n      pop\n        /* \"#utility.yul\":1763:1764   */\n      0x01\n        /* \"#utility.yul\":1752:1765   */\n      add\n      swap1\n        /* \"#utility.yul\":1636:1771   */\n      jump\t// out\n\n    auxdata: 0xa26469706673582212204145d18bc2a9bbae57c8ebc9542dffb13f6c36c869144ea621c93b3427be3f6664736f6c634300081c0033\n}\n",
				"bytecode": {
					"linkReferences": {},
					"object": "60806040526001805460ff19166003179055348015601b575f5ffd5b5061023b806100295f395ff3fe608060405234801561000f575f5ffd5b506004361061003f575f3560e01c80633400270714610043578063463a94a514610058578063969369f81461007c575b5f5ffd5b610056610051366004610178565b6100a9565b005b6001546100659060ff1681565b60405160ff90911681526020015b60405180910390f35b61009b61008a3660046101a0565b5f6020819052908152604090205481565b604051908152602001610073565b600154335f9081526020819052604090205460ff909116906100cc9083906101d4565b111561011e5760405162461bcd60e51b815260206004820181905260248201527f6d6178207469636b657473207065722061646472657373206578636565646564604482015260640160405180910390fd5b5f5b81811015610158576001600160a01b0383165f90815260208190526040812080549161014b836101ed565b9091555050600101610120565b505050565b80356001600160a01b0381168114610173575f5ffd5b919050565b5f5f60408385031215610189575f5ffd5b6101928361015d565b946020939093013593505050565b5f602082840312156101b0575f5ffd5b6101b98261015d565b9392505050565b634e487b7160e01b5f52601160045260245ffd5b808201808211156101e7576101e76101c0565b92915050565b5f600182016101fe576101fe6101c0565b506001019056fea26469706673582212204145d18bc2a9bbae57c8ebc9542dffb13f6c36c869144ea621c93b3427be3f6664736f6c634300081c0033",
					"opcodes": "PUSH1 0x80 PUSH1 0x40 MSTORE PUSH1 0x1 DUP1 SLOAD PUSH1 0xFF NOT AND PUSH1 0x3 OR SWAP1 SSTORE CALLVALUE DUP1 ISZERO PUSH1 0x1B JUMPI PUSH0 PUSH0 REVERT JUMPDEST POP PUSH2 0x23B DUP1 PUSH2 0x29 PUSH0 CODECOPY PUSH0 RETURN INVALID PUSH1 0x80 PUSH1 0x40 MSTORE CALLVALUE DUP1 ISZERO PUSH2 0xF JUMPI PUSH0 PUSH0 REVERT JUMPDEST POP PUSH1 0x4 CALLDATASIZE LT PUSH2 0x3F JUMPI PUSH0 CALLDATALOAD PUSH1 0xE0 SHR DUP1 PUSH4 0x34002707 EQ PUSH2 0x43 JUMPI DUP1 PUSH4 0x463A94A5 EQ PUSH2 0x58 JUMPI DUP1 PUSH4 0x969369F8 EQ PUSH2 0x7C JUMPI JUMPDEST PUSH0 PUSH0 REVERT JUMPDEST PUSH2 0x56 PUSH2 0x51 CALLDATASIZE PUSH1 0x4 PUSH2 0x178 JUMP JUMPDEST PUSH2 0xA9 JUMP JUMPDEST STOP JUMPDEST PUSH1 0x1 SLOAD PUSH2 0x65 SWAP1 PUSH1 0xFF AND DUP2 JUMP JUMPDEST PUSH1 0x40 MLOAD PUSH1 0xFF SWAP1 SWAP2 AND DUP2 MSTORE PUSH1 0x20 ADD JUMPDEST PUSH1 0x40 MLOAD DUP1 SWAP2 SUB SWAP1 RETURN JUMPDEST PUSH2 0x9B PUSH2 0x8A CALLDATASIZE PUSH1 0x4 PUSH2 0x1A0 JUMP JUMPDEST PUSH0 PUSH1 0x20 DUP2 SWAP1 MSTORE SWAP1 DUP2 MSTORE PUSH1 0x40 SWAP1 KECCAK256 SLOAD DUP2 JUMP JUMPDEST PUSH1 0x40 MLOAD SWAP1 DUP2 MSTORE PUSH1 0x20 ADD PUSH2 0x73 JUMP JUMPDEST PUSH1 0x1 SLOAD CALLER PUSH0 SWAP1 DUP2 MSTORE PUSH1 0x20 DUP2 SWAP1 MSTORE PUSH1 0x40 SWAP1 KECCAK256 SLOAD PUSH1 0xFF SWAP1 SWAP2 AND SWAP1 PUSH2 0xCC SWAP1 DUP4 SWAP1 PUSH2 0x1D4 JUMP JUMPDEST GT ISZERO PUSH2 0x11E JUMPI PUSH1 0x40 MLOAD PUSH3 0x461BCD PUSH1 0xE5 SHL DUP2 MSTORE PUSH1 0x20 PUSH1 0x4 DUP3 ADD DUP2 SWAP1 MSTORE PUSH1 0x24 DUP3 ADD MSTORE PUSH32 0x6D6178207469636B657473207065722061646472657373206578636565646564 PUSH1 0x44 DUP3 ADD MSTORE PUSH1 0x64 ADD PUSH1 0x40 MLOAD DUP1 SWAP2 SUB SWAP1 REVERT JUMPDEST PUSH0 JUMPDEST DUP2 DUP2 LT ISZERO PUSH2 0x158 JUMPI PUSH1 0x1 PUSH1 0x1 PUSH1 0xA0 SHL SUB DUP4 AND PUSH0 SWAP1 DUP2 MSTORE PUSH1 0x20 DUP2 SWAP1 MSTORE PUSH1 0x40 DUP2 KECCAK256 DUP1 SLOAD SWAP2 PUSH2 0x14B DUP4 PUSH2 0x1ED JUMP JUMPDEST SWAP1 SWAP2 SSTORE POP POP PUSH1 0x1 ADD PUSH2 0x120 JUMP JUMPDEST POP POP POP JUMP JUMPDEST DUP1 CALLDATALOAD PUSH1 0x1 PUSH1 0x1 PUSH1 0xA0 SHL SUB DUP2 AND DUP2 EQ PUSH2 0x173 JUMPI PUSH0 PUSH0 REVERT JUMPDEST SWAP2 SWAP1 POP JUMP JUMPDEST PUSH0 PUSH0 PUSH1 0x40 DUP4 DUP6 SUB SLT ISZERO PUSH2 0x189 JUMPI PUSH0 PUSH0 REVERT JUMPDEST PUSH2 0x192 DUP4 PUSH2 0x15D JUMP JUMPDEST SWAP5 PUSH1 0x20 SWAP4 SWAP1 SWAP4 ADD CALLDATALOAD SWAP4 POP POP POP JUMP JUMPDEST PUSH0 PUSH1 0x20 DUP3 DUP5 SUB SLT ISZERO PUSH2 0x1B0 JUMPI PUSH0 PUSH0 REVERT JUMPDEST PUSH2 0x1B9 DUP3 PUSH2 0x15D JUMP JUMPDEST SWAP4 SWAP3 POP POP POP JUMP JUMPDEST PUSH4 0x4E487B71 PUSH1 0xE0 SHL PUSH0 MSTORE PUSH1 0x11 PUSH1 0x4 MSTORE PUSH1 0x24 PUSH0 REVERT JUMPDEST DUP1 DUP3 ADD DUP1 DUP3 GT ISZERO PUSH2 0x1E7 JUMPI PUSH2 0x1E7 PUSH2 0x1C0 JUMP JUMPDEST SWAP3 SWAP2 POP POP JUMP JUMPDEST PUSH0 PUSH1 0x1 DUP3 ADD PUSH2 0x1FE JUMPI PUSH2 0x1FE PUSH2 0x1C0 JUMP JUMPDEST POP PUSH1 0x1 ADD SWAP1 JUMP INVALID LOG2 PUSH5 0x6970667358 0x22 SLT KECCAK256 COINBASE GASLIMIT 0xD1 DUP12 0xC2 0xA9 0xBB 0xAE JUMPI 0xC8 0xEB 0xC9 SLOAD 0x2D SELFDESTRUCT 0xB1 EXTCODEHASH PUSH13 0x36C869144EA621C93B3427BE3F PUSH7 0x64736F6C634300 ADDMOD SHR STOP CALLER "
				},
				"gasEstimates": {
					"creation": {
						"codeDepositCost": "114200",
						"executionCost": "24381",
						"totalCost": "138581"
					},
					"external": {
						"Count(address)": "2541",
						"claimTickets(address,uint256)": "infinite",
						"maxTicketsPerAddress()": "2301"
					}
				},
				"methodIdentifiers": {
					"Count(address)": "969369f8",
					"claimTickets(address,uint256)": "34002707",
					"maxTicketsPerAddress()": "463a94a5"
				}
			},
			"storageLayout": {
				"storage": [
					{
						"astId": 5,
						"contract": ".deps/contracts/Games/LimitedTickets.sol:LimitedTickets",
						"label": "Count",
						"offset": 0,
						"slot": "0",
						"type": "t_mapping(t_address,t_uint256)"
					},
					{
						"astId": 8,
						"contract": ".deps/contracts/Games/LimitedTickets.sol:LimitedTickets",
						"label": "maxTicketsPerAddress",
						"offset": 0,
						"slot": "1",
						"type": "t_uint8"
					}
				],
				"types": {
					"t_address": {
						"encoding": "inplace",
						"label": "address",
						"numberOfBytes": "20"
					},
					"t_mapping(t_address,t_uint256)": {
						"encoding": "mapping",
						"key": "t_address",
						"label": "mapping(address => uint256)",
						"numberOfBytes": "32",
						"value": "t_uint256"
					},
					"t_uint256": {
						"encoding": "inplace",
						"label": "uint256",
						"numberOfBytes": "32"
					},
					"t_uint8": {
						"encoding": "inplace",
						"label": "uint8",
						"numberOfBytes": "1"
					}
				}
			},
			"userdoc": {
				"kind": "user",
				"methods": {},
				"version": 1
			}
		}
	}
}